:100000000C9462000C948A000C948A000C948A0070
:100010000C948A000C948A000C948A000C948A0038
:100020000C948A000C948A000C948A000C948A0028
:100030000C948A000C948A000C948A000C948A0018
:100040000C9471040C948A000C943F040C941904D1
:100050000C948A000C948A000C948A000C948A00F8
:100060000C948A000C948A000000000024002700F1
:100070002A0000000000250028002B0000000000DE
:1000800023002600290004040404040404040202DA
:100090000202020203030303030301020408102007
:1000A0004080010204081020010204081020000012
:1000B0000008000201000003040700000000000027
:1000C0000000950911241FBECFEFD8E0DEBFCDBFE1
:1000D00011E0A0E0B1E0EEEAF8E102C005900D9277
:1000E000A034B107D9F721E0A0E4B1E001C01D922E
:1000F000AC3FB207E1F710E0C2E6D0E004C02197C0
:10010000FE010E944F0CC136D107C9F70E940005BD
:100110000C94550C0C940000AF92BF92CF92DF92DA
:10012000EF92FF920F931F93CF93DF936C017B01AC
:100130008B01040F151FEB015E01AE18BF08C0173D
:10014000D10759F06991D601ED91FC910190F081B0
:10015000E02DC6010995892B79F7C501DF91CF9173
:100160001F910F91FF90EF90DF90CF90BF90AF90D5
:100170000895FC01538D448D252F30E0842F90E0AD
:10018000821B930B541710F0CF9608950197089592
:10019000FC01918D828D981761F0A28DAE0FBF2F5B
:1001A000B11D5D968C91928D9F5F9F73928F90E0B1
:1001B00008958FEF9FEF0895FC01918D828D981720
:1001C00031F0828DE80FF11D858D90E008958FEF5D
:1001D0009FEF0895FC01918D228D892F90E0805C26
:1001E0009F4F821B91098F73992708958FE591E0A6
:1001F0000E94EA0021E0892B09F420E0822F089573
:1002000080E090E0892B29F00E94F60081110C9487
:1002100000000895FC01A48DA80FB92FB11DA35AA9
:10022000BF4F2C91848D90E001968F739927848F16
:10023000A689B7892C93A089B1898C918370806439
:100240008C93938D848D981306C00288F389E02DDA
:1002500080818F7D80830895EF92FF920F931F938B
:10026000CF93DF93EC0181E0888F9B8D8C8D981369
:100270001AC0E889F989808185FF15C09FB7F89475
:10028000EE89FF896083E889F989808183708064C1
:1002900080839FBF81E090E0DF91CF911F910F910C
:1002A000FF90EF900895F62E0B8D10E00F5F1F4F1B
:1002B0000F731127E02E8C8D8E110CC00FB607FC2A
:1002C000FACFE889F989808185FFF5CFCE010E94B8
:1002D0000A01F1CFEB8DEC0FFD2FF11DE35AFF4F1B
:1002E000F0829FB7F8940B8FEA89FB898081806246
:1002F000CFCFCF93DF93EC01888D8823B9F0AA8903
:10030000BB89E889F9898C9185FD03C0808186FDD0
:100310000DC00FB607FCF7CF8C9185FFF2CF80811F
:1003200085FFEDCFCE010E940A01E9CFDF91CF9189
:100330000895833081F028F4813099F08230A9F05B
:1003400008958730A9F08830C9F08430B1F48091E5
:1003500080008F7D03C0809180008F778093800024
:10036000089584B58F7784BD089584B58F7DFBCFC4
:100370008091B0008F778093B00008958091B00095
:100380008F7DF9CF1F93CF93DF93282F30E0F901B2
:10039000E255FF4F8491F901E656FF4FD491F901E0
:1003A000EA57FF4FC491CC23A9F0162F81110E9468
:1003B0009901EC2FF0E0EE0FFF1FEE58FF4FA591D3
:1003C000B4918FB7F894EC91111108C0D095DE2349
:1003D000DC938FBFDF91CF911F910895DE2BF8CF73
:1003E000CF93DF9390E0FC01E656FF4F24918A57AC
:1003F0009F4FFC0184918823D1F090E0880F991FD2
:10040000FC01E859FF4FA591B491FC01EE58FF4F54
:10041000C591D49161110EC09FB7F8948C91E22FD1
:10042000E0958E238C932881E223E8839FBFDF91A0
:10043000CF9108958FB7F894EC91E22BEC938FBF96
:10044000F6CF8E50806480937C0080917A00806427
:1004500080937A0080917A0086FDFCCF80917800AD
:100460009091790008953FB7F8948091450190915B
:100470004601A0914701B091480126B5A89B05C04F
:100480002F3F19F00196A11DB11D3FBFBA2FA92F13
:10049000982F8827BC01CD01620F711D811D911D10
:1004A00042E0660F771F881F991F4A95D1F708957C
:1004B0008F929F92AF92BF92CF92DF92EF92FF9274
:1004C0004B015C010E9433026B017C010E943302EC
:1004D0006C197D098E099F09683E7340810591055D
:1004E000A8F321E0821A9108A108B10888EEC80E8D
:1004F00083E0D81EE11CF11C81149104A104B10415
:1005000029F7FF90EF90DF90CF90BF90AF909F9032
:100510008F9008951F93CF93DF93182FC3E0D0E0FF
:1005200061E0812F0E94C20164EF71E080E090E001
:100530000E94580260E0812F0E94C20164EF71E0C6
:1005400080E090E00E945802219751F7DF91CF910F
:100550001F910895FC0101900020E9F73197AF0148
:10056000481B590BBC018FE591E00C948C008F92D5
:100570009F92AF92BF920F931F93CF93DF93CDB70C
:10058000DEB7A1970FB6F894DEBF0FBECDBF19A29C
:10059000423008F44AE08E010F5D1F4F842E912CEB
:1005A000B12CA12CA50194010E94190CE62FB901D0
:1005B000CA01EA30F4F4E05DD801EE938D01232BFB
:1005C000242B252B79F790E080E0109719F0CD01CE
:1005D0000E94AA02A1960FB6F894DEBF0FBECDBF4F
:1005E000DF91CF911F910F91BF90AF909F908F900F
:1005F0000895E95CE1CF4F925F926F927F928F9264
:100600009F92AF92BF92CF92DF92EF92FF9220E043
:1006100030E040E251E40E94340A6B017C0182E147
:1006200091E00E94AA0289E291E00E94AA02A70139
:100630009601C701B6010E94000C8823E9F08CE204
:1006400091E00E94AA0289E291E00E94AA0264E677
:1006500070E080E090E00E945802C701B601FF9070
:10066000EF90DF90CF90BF90AF909F908F907F9052
:100670006F905F904F90089546015701E894B7F846
:100680002FEF3FEF4FE75FE7C501B4010E94000C79
:1006900081110DC02FEF3FEF4FE75FE7C501B401B8
:1006A0000E942F0A18161CF480E391E0CACF2FEFA6
:1006B0003FEF4FE75FE4C701B6010E948E0B1816AB
:1006C0001CF484E391E0BDCF2FEF3FEF4FE75FECE9
:1006D000C701B6010E942F0A87FDF3CF20E030E06A
:1006E000A901C701B6010E942F0A87FF54C06DE21D
:1006F0008FE591E00E942C01C701B60190582AE0D5
:1007000037ED43EA5BE30E94C3092B013C010E94E1
:10071000AD0A4B015C010E94DC0A9B01AC01C301E4
:10072000B2010E94C2092B013C014AE0C501B4019B
:100730000E94B7026EE28FE591E00E942C0120E05A
:1007400030E040E251E4C301B2010E94930B2B015F
:100750003C010E94AD0A4B01B12CA12C4AE0C5011D
:10076000B4010E94B702C501B4010E94DC0A9B01DA
:10077000AC01C301B2010E94C20920E030E040E2B6
:1007800051E40E94930B0E94AD0A90E080E04AE0A1
:100790000E94B70258CFC701B601B1CF0F931F9384
:1007A00060E084E00E94C2018FE090E00197F1F7E1
:1007B00061E084E00E94C2018BE99FE00197F1F7BC
:1007C00060E084E00E94C201EFE9F0E06491EBE8B0
:1007D000F0E0E491F0E0EE0FFF1FE458FF4F859149
:1007E000949100E412E42FE030E0462F0E94BB0415
:1007F000611571058105910529F06F5F7F4F8F4F5E
:100800009F4F9F700E94DC0A20E034E244E759E4E5
:100810000E94340A20E030E04AEA53E40E94930B3D
:1008200020E030E040E05FE30E94930B1F910F91C6
:1008300008951F920F920FB60F9211242F933F939A
:100840004F935F936F937F938F939F93AF93BF93D8
:10085000EF93FF938FE591E00E940A01FF91EF91E2
:10086000BF91AF919F918F917F916F915F914F91C8
:100870003F912F910F900FBE0F901F9018951F92D0
:100880000F920FB60F9211242F938F939F93EF9394
:10089000FF93E0916F01F09170018081E09175010B
:1008A000F091760182FD1BC09081809178018F5F6D
:1008B0008F7320917901821741F0E0917801F0E087
:1008C000E15AFE4F958F80937801FF91EF919F91B0
:1008D0008F912F910F900FBE0F901F9018958081D0
:1008E000F4CF1F920F920FB60F9211242F933F93C4
:1008F0008F939F93AF93BF93809141019091420159
:10090000A0914301B09144013091400123E0230FB5
:100910002D3758F50196A11DB11D209340018093FC
:10092000410190934201A0934301B093440180910F
:10093000450190914601A0914701B091480101966F
:10094000A11DB11D8093450190934601A0934701DD
:10095000B0934801BF91AF919F918F913F912F919B
:100960000F900FBE0F901F90189526E8230F029648
:10097000A11DB11DD2CFCF92DF92EF92FF920F93C4
:100980001F93E82FF92F05C00150110921093109E2
:1009900061F1908196239417B9F305C001501109B4
:1009A0002109310911F1908196239413F7CFC12CBD
:1009B000D12CE12CF12C0AC08FEFC81AD80AE80A12
:1009C000F80A0C151D052E053F0579F08081862358
:1009D000841791F36C2D7D2D8E2D9F2D1F910F91DE
:1009E000FF90EF90DF90CF90089560E070E080E09E
:1009F00090E01F910F91FF90EF90DF90CF900895BE
:100A0000789484B5826084BD84B5816084BD85B5E9
:100A1000826085BD85B5816085BD80916E008160F5
:100A200080936E001092810080918100826080939B
:100A3000810080918100816080938100809180009D
:100A40008160809380008091B10084608093B100C8
:100A50008091B00081608093B00080917A008460C2
:100A600080937A0080917A00826080937A008091EE
:100A70007A00816080937A0080917A008068809308
:100A80007A001092C10061E084E00E94F00160E011
:100A900084E00E94C20160E085E00E94F001E091E4
:100AA0006F01F091700182E08083E0916B01F09121
:100AB0006C011082E0916D01F0916E018FEC8083EA
:100AC00010927701E0917301F091740186E08083C8
:100AD000E0917101F0917201808180618083E091E9
:100AE0007101F0917201808188608083E0917101D1
:100AF000F0917201808180688083E0917101F091B2
:100B0000720180818F7D808361E088E00E94F00126
:100B100061E086E00E94F00161E087E00E94F00160
:100B200061E082E00E94F00161E08AE00E94F00151
:100B300061E08BE00E94F00160E089E00E94F0013A
:100B400061E08CE00E94F0019FE8292E90E0392EB0
:100B500020E0822E20E0922E32E0A32EB12C8EE0F7
:100B60000E942102BC01990F880B990B0E94DE0A9A
:100B70002CE030E340E45CE30E94930B20E030E0A3
:100B8000A9010E942F0A81117AC110924C01109282
:100B90004B0100914B0110914C01C0914901D09142
:100BA0004A01033011050CF040C08EE00E94210282
:100BB000BC01990F880B990B0E94DE0A2CE030E3F0
:100BC00040E45CE30E94930B20E030E0A9010E9426
:100BD0002F0A811123C08FE00E942102BC01990FCE
:100BE000880B990B0E94DE0A2CE030E340E45CE3C2
:100BF0000E94930B2B013C01BE01DD0F880B990B6A
:100C00000E94DE0A9B01AC01C301B2010E94C3092C
:100C10000E94A60A70934A01609349010F5F1F4F1B
:100C200010934C0100934B01B4CFCE0163E070E010
:100C30000E94050C70934A016093490188E391E09A
:100C40000E94AA0289E291E00E94AA024090490112
:100C500050904A01052C000C660877084AE0C30151
:100C6000B20177FE0DC06DE28FE591E00E942C018C
:100C700066277727CB0164197509860997094AE029
:100C80000E94B70289E291E00E94AA028091490184
:100C900090914A0161E009970CF0F2C080915D01EA
:100CA00090915E01892B09F01DC11092590110929B
:100CB0005A0110925B0110925C010E94CE032B013D
:100CC0003C0120E030E040E85FE30E942F0A87FF0C
:100CD000AEC120915501309156014091570150917C
:100CE0005801C301B2010E94C3092B013C0140928B
:100CF000550150925601609257017092580120E0C0
:100D000030E040E85FE360915101709152018091C1
:100D10005301909154010E94C3096B017C01C09260
:100D20005101D0925201E0925301F092540162E3DA
:100D300070E080E090E00E94580220E030E040E265
:100D400051E4C701B6010E942F0A8111CBC0C30133
:100D5000B2010E94FB022B013C0110925101109242
:100D600052011092530110925401109255011092A9
:100D7000560110925701109258012AE939E949E9C0
:100D80005EE30E942F0A18160CF47EC020E030E0CB
:100D9000A901C301B2010E948E0B18160CF074C099
:100DA00061E082E00E94C20168EE73E080E090E0C2
:100DB0000E945802E7EBF0E08491E3EAF0E0C4918E
:100DC000F101D491DD2309F48DC081110E949901B4
:100DD000ED2FF0E0EE0FFF1FE458FF4FA591B49107
:100DE0008C91C82309F47EC087E090E00E948A02BB
:100DF00061E087E00E94C20161E08BE00E94C201D5
:100E00006CED75E080E090E00E94580260E08BE0BD
:100E10000E94C20160E087E00E94C20188E090E089
:100E20000E948A0261E088E00E94C20161E08AE0DB
:100E30000E94C20168EE73E080E090E00E945802D8
:100E400060E088E00E94C20160E08AE00E94C20186
:100E500081E090E090935E0180935D0110924D01DE
:100E600010924E0110924F011092500110925901B0
:100E700010925A0110925B0110925C0133C060E045
:100E80008CE00E94C2010ACF20E030E040E85FE33E
:100E900060914D0170914E0180914F0190915001F0
:100EA0000E94C30960934D0170934E0180934F01DE
:100EB0009093500120E030E040E450E40E942F0A7B
:100EC000811110C060E082E00E94C20110924D01C9
:100ED00010924E0110924F011092500110925E013B
:100EE00010925D0180915D0190915E01019709F082
:100EF000EFC00E94CE032B013C0120E030E040E82F
:100F00005FE30E942F0A87FF90C120915501309125
:100F100056014091570150915801C301B2010E94FE
:100F2000C3092B013C014092550150925601609239
:100F300057017092580120E030E040E85FE3609193
:100F400051017091520180915301909154010E947E
:100F5000C3096B017C01C0925101D0925201E09211
:100F60005301F092540162E370E080E090E00E944F
:100F7000580220E030E040E251E4C701B6010E948F
:100F80002F0A8111A5C0C301B2010E94FB022B01EF
:100F90003C01109251011092520110925301109293
:100FA000540110925501109256011092570110925F
:100FB00058012AE939E949E95EE30E942F0A181627
:100FC0000CF458C020E030E0A901C301B2010E9436
:100FD0008E0B18160CF04EC061E082E00E94C20138
:100FE00086E090E00E948A0261E086E00E94C201F1
:100FF00060E27EE480E090E00E94580260E086E0DB
:101000000E94C201B0925E01A0925D0110924D015A
:1010100010924E0110924F011092500110925901FE
:1010200010925A0110925B0110925C0151C020E0B5
:1010300030E040E85FE36091590170915A0180917E
:101040005B0190915C010E94C30960935901709308
:101050005A0180935B0190935C0120E030E040EA0C
:1010600050E40E942F0A81113DCF60E082E00E948F
:10107000C201FCCE20E030E040E85FE360914D012A
:1010800070914E0180914F01909150010E94C309CF
:1010900060934D0170934E0180934F0190935001E6
:1010A00020E030E040E450E40E942F0A811110C09B
:1010B00060E082E00E94C20110924D0110924E0148
:1010C00010924F011092500110925E0110925D013A
:1010D00080915D0190915E01029709F0F7C00E9436
:1010E000CE032B013C0120E030E040E85FE30E94AA
:1010F0002F0A87FFF7C0209155013091560140918A
:10110000570150915801C301B2010E94C3092B013C
:101110003C014092550150925601609257017092E5
:10112000580120E030E040E85FE3609151017091A8
:10113000520180915301909154010E94C3096B01A7
:101140007C01C0925101D0925201E0925301F09281
:10115000540162E370E080E090E00E94580220E0D9
:1011600030E040E251E4C701B6010E942F0A81112C
:10117000ADC0C301B2010E94FB022B013C011092E1
:101180005101109252011092530110925401109289
:1011900055011092560110925701109258012AE9F8
:1011A00039E949E95EE30E942F0A18160CF460C081
:1011B00020E030E0A901C301B2010E948E0B181695
:1011C0000CF056C061E082E00E94C20187E090E02E
:1011D0000E948A0261E087E00E94C20161E08BE028
:1011E0000E94C20160E177E280E090E00E94580234
:1011F00060E08BE00E94C20160E087E00E94C201D3
:1012000010925E0110925D0110924D0110924E01FC
:1012100010924F01109250011092590110925A01F0
:1012200010925B0110925C0151C020E030E040E878
:101230005FE36091590170915A0180915B01909137
:101240005C010E94C3096093590170935A01809315
:101250005B0190935C0120E030E040EA50E40E94A2
:101260002F0A811135CF60E082E00E94C201D6CE04
:1012700020E030E040E85FE360914D0170914E0165
:1012800080914F01909150010E94C30960934D01DC
:1012900070934E0180934F019093500120E030E015
:1012A00040E450E40E942F0A811110C060E082E007
:1012B0000E94C20110924D0110924E0110924F01F6
:1012C0001092500110925E0110925D018114910400
:1012D00009F445CC0E94F600882309F440CC0E9412
:1012E00000003DCC20E030E040E85FE36091590130
:1012F00070915A0180915B0190915C010E94C30939
:101300006093590170935A0180935B0190935C0143
:1013100020E030E040EA50E40E942F0A8111D6CF4D
:1013200060E082E00E94C20177CFEFE5F1E0138236
:10133000128288EE93E0A0E0B0E084839583A683D8
:10134000B78384E091E09183808385EC90E095877A
:10135000848784EC90E09787868780EC90E0918B7F
:10136000808B81EC90E0938B828B82EC90E0958B6C
:10137000848B86EC90E0978B868B118E128E138E69
:10138000148E08955058BB27AA270E94DA090C949E
:10139000540B0E94460B38F00E944D0B20F039F49C
:1013A0009F3F19F426F40C94430B0EF4E095E7FBF1
:1013B0000C943D0BE92F0E94650B58F3BA17620796
:1013C00073078407950720F079F4A6F50C94870B32
:1013D0000EF4E0950B2EBA2FA02D0B01B901900150
:1013E0000C01CA01A0011124FF27591B99F0593F94
:1013F00050F4503E68F11A16F040A22F232F342FDC
:101400004427585FF3CF469537952795A795F04029
:101410005395C9F77EF41F16BA0B620B730B840B3E
:10142000BAF09150A1F0FF0FBB1F661F771F881FF6
:10143000C2F70EC0BA0F621F731F841F48F487954E
:1014400077956795B795F7959E3F08F0B0CF939540
:10145000880F08F09927EE0F9795879508950E94B9
:10146000190B08F481E008950E94480A0C94540B6B
:101470000E944D0B58F00E94460B40F029F45F3F4C
:1014800029F00C943D0B51110C94880B0C94430BD8
:101490000E94650B68F39923B1F3552391F3951BD3
:1014A000550BBB27AA2762177307840738F09F5F85
:1014B0005F4F220F331F441FAA1FA9F335D00E2EF2
:1014C0003AF0E0E832D091505040E695001CCAF75F
:1014D0002BD0FE2F29D0660F771F881FBB1F261722
:1014E00037074807AB07B0E809F0BB0B802DBF01F9
:1014F000FF2793585F4F3AF09E3F510578F00C94C8
:101500003D0B0C94880B5F3FE4F3983ED4F3869533
:1015100077956795B795F7959F5FC9F7880F911DE8
:101520009695879597F90895E1E0660F771F881FD4
:10153000BB1F621773078407BA0720F0621B730B87
:10154000840BBA0BEE1F88F7E09508950E94AD0A50
:101550006894B1110C94880B08950E946D0B88F06B
:101560009F5798F0B92F9927B751B0F0E1F0660F67
:10157000771F881F991F1AF0BA95C9F714C0B130A8
:1015800091F00E94870BB1E008950C94870B672FB0
:10159000782F8827B85F39F0B93FCCF386957795D7
:1015A0006795B395D9F73EF49095809570956195C0
:1015B0007F4F8F4F9F4F0895E89409C097FB3EF4EB
:1015C00090958095709561957F4F8F4F9F4F992390
:1015D000A9F0F92F96E9BB279395F695879577950E
:1015E0006795B795F111F8CFFAF4BB0F11F460FFCE
:1015F0001BC06F5F7F4F8F4F9F4F16C0882311F026
:1016000096E911C0772321F09EE8872F762F05C039
:10161000662371F096E8862F70E060E02AF09A95D4
:10162000660F771F881FDAF7880F9695879597F9C9
:101630000895990F0008550FAA0BE0E8FEEF161663
:101640001706E807F907C0F012161306E407F507B6
:1016500098F0621B730B840B950B39F40A2661F02A
:10166000232B242B252B21F408950A2609F4A140CD
:10167000A6958FEF811D811D089597F99F6780E8DA
:1016800070E060E008959FEF80EC089500240A94D4
:101690001616170618060906089500240A9412164D
:1016A0001306140605060895092E0394000C11F480
:1016B000882352F0BB0F40F4BF2B11F460FF04C02D
:1016C0006F5F7F4F8F4F9F4F089557FD9058440F86
:1016D000551F59F05F3F71F04795880F97FB991F91
:1016E00061F09F3F79F0879508951216130614064E
:1016F000551FF2CF4695F1DF08C0161617061806DB
:10170000991FF1CF86957105610508940895E894B5
:10171000BB2766277727CB0197F908950E94190BFD
:1017200008F48FEF08950E94A60B0C94540B0E94AE
:10173000460B38F00E944D0B20F0952311F00C94CD
:101740003D0B0C94430B11240C94880B0E94650BE9
:1017500070F3959FC1F3950F50E0551F629FF00104
:10176000729FBB27F00DB11D639FAA27F00DB11D1D
:10177000AA1F649F6627B00DA11D661F829F2227A6
:10178000B00DA11D621F739FB00DA11D621F839F2D
:10179000A00D611D221F749F3327A00D611D231F03
:1017A000849F600D211D822F762F6A2F11249F5751
:1017B00050409AF0F1F088234AF0EE0FFF1FBB1F54
:1017C000661F771F881F91505040A9F79E3F510513
:1017D00080F00C943D0B0C94880B5F3FE4F3983E33
:1017E000D4F3869577956795B795F795E7959F5FBD
:1017F000C1F7FE2B880F911D9695879597F908954F
:101800000E94190B880B990B089597FB072E16F46D
:10181000009407D077FD09D00E943B0C07FC05D04F
:101820003EF4909581959F4F0895709561957F4FF7
:101830000895A1E21A2EAA1BBB1BFD010DC0AA1F11
:10184000BB1FEE1FFF1FA217B307E407F50720F029
:10185000A21BB30BE40BF50B661F771F881F991FA4
:101860001A9469F760957095809590959B01AC01ED
:10187000BD01CF010895AA1BBB1B51E107C0AA1FE0
:10188000BB1FA617B70710F0A61BB70B881F991F21
:101890005A95A9F780959095BC01CD010895EE0F5A
:0E18A000FF1F0590F491E02D0994F894FFCFFE
:1018AE00000000002C018C00B9007901EA00C8008C
:1018BE00DC004D65646961204D6564696461206575
:1018CE006D204D6574726F73000D0A006E616E00AF
:1018DE00696E66006F76660054657374653A000033
:00000001FF
